:020000040800F2
:1000000000180020AD000008000000000000000003
:1000100000000000000000000000000000000000E0
:10002000002200232DE903480021CDE900230948DF
:10003000DDE90023904271EB030308DBDDE900BC3E
:100040001BF101024CF10003CDE90023F0E702B0FF
:10005000BDE80088EF490200104A08B59369104CCA
:1000600043F03C039361626822F47002626062684C
:1000700042F440126260236943F6982043F400532F
:1000800023610021FFF7CCFF236943F6982043F05A
:10009000005323610021FFF7C3FFECE7001002408B
:1000A0000010014008B5FFF7D7FF0000002108B598
:1000B0000B4A0C4B93420AD100220B490B4B0C48C4
:1000C0005B1A9B089A4205D1FFF7ECFFFEE743F865
:1000D000041BEFE750F8224041F822400132F1E7DB
:1000E0000018002000180020001800200018002030
:0400F000F400000810
:04000005080000AD42
:00000001FF
