:020000040800F2
:10000000001800200D0100080000000000000000A2
:1000100000000000000000000000000000000000E0
:10002000094B1A7872B90121197008498B6943F09C
:100030003C038B616FF07F41054B1A6059609A60F9
:1000400005221A60704700BF0C1800200010024003
:1000500010E000E02DE91848FFF7E2FF0C4B0D4AD5
:100060009B681168DB4323F07F4399420A4C07D910
:10007000D4E9000110F1807B41F1000CC4E900BC1F
:10008000D4E900BC13604BEA03006146BDE8188860
:1000900010E000E00818002000180020F8B5044621
:1000A0000D46FFF7D7FF261845EB0107FFF7D2FFF4
:1000B000B94208BFB042F9D3F8BD00000F4C80B57B
:1000C000FFF7AEFF63684FF4005823F470036360DA
:1000D0006368002743F440136360FFF7A1FF4FF00C
:1000E0000055074E30463946C4F81080FFF7D6FF5A
:1000F000256130463946FFF7D1FFF3E70010014094
:1001000000D4300008B5FFF7D9FF0000002108B582
:100110000B4A0C4B93420AD100220B490B4B0C4863
:100120005B1A9B089A4205D1FFF7ECFFFEE743F804
:10013000041BEFE750F8224041F822400132F1E77A
:10014000101800200018002010180020101800209F
:04015000540100084E
:040000050800010DE1
:00000001FF
