:020000040800F2
:10000000001800207D010008000000000000000032
:1000100000000000000000000000000000000000E0
:10002000234B1A78002A41D101221A70214A136801
:1000300003F0400343F0120313601F4B1F4A19687B
:100040000A4042F480321A601A689003FCD51C4AB8
:10005000116801F4803141F480611160116821F070
:100060007F4121F07F0141F4E8111160196821F00E
:100070007C4121F0010141F080711960196889010A
:10008000FCD5116801F0040141F0020111609A6988
:100090006FF07F4142F4804242F03D029A610022BB
:1000A000084B1A6059609A6005221A60704700BFB9
:1000B0000C1800200020024000100240FEFF030048
:1000C0000410024010E000E00D4B0E4A9B681168DE
:1000D000DB4323F07F4399422DE910480A4C07D9AE
:1000E000D4E9000110F1807B41F1000CC4E900BCAF
:1000F000D4E900BC13604BEA03006146BDE81088F8
:1001000010E000E00818002000180020F8B50446B0
:100110000D46FFF7D9FF261845EB0107FFF7D4FF7F
:10012000B94208BFB042F9D3F8BD0000000000009A
:10013000114C80B50EA7D7E90067FFF771FF636820
:100140004FF0005823F4700343F440136360FFF74B
:1001500067FF4FF4005530463946C4F81080FFF76A
:10016000D5FF256130463946FFF7D0FFF3E700BFE2
:1001700001BADB000000000000100140002108B5BA
:100180000B4A0C4B93420AD100220B490B4B0C48F3
:100190005B1A9B089A4205D1FFF7CAFFFEE743F8B6
:1001A000041BEFE750F8224041F822400132F1E70A
:1001B000101800200018002010180020101800202F
:0401C000C40100086E
:040000050800017D71
:00000001FF
