:020000040800F2
:10000000001800200D0200080000000000000000A1
:1000100000000000000000000000000000000000E0
:1000200010F0010F14BF4FF400624FF00062184B44
:1000300010F0020F1A6114BF4FF480624FF080621B
:1000400010F0040F1A6114BF02224FF4003210F0B6
:10005000080F1A6114BF01224FF4803210F0100F04
:100060001A6114BF80224FF40002A3F5806310F0E0
:10007000200F1A6114BF40224FF4800210F0400F8D
:100080001A6114BF20224FF400121A61704700BF9A
:10009000000C0140094B1A7872B901211970084906
:1000A0008B6943F03C038B616FF07F41054B1A6015
:1000B00059609A6005221A60704700BF0C18002032
:1000C0000010024010E000E010B5214CFFF7E2FF05
:1000D0006368A4F5806423F4704343F44053C4F888
:1000E0000434FFF7D7FFD4F8043423F4706343F4E7
:1000F0004073C4F80434FFF7CDFFD4F8003423F084
:10010000F00343F03003C4F80034FFF7C3FFD4F822
:10011000003423F00F0343F00303C4F80034FFF767
:10012000B9FF236823F0704343F040532360FFF787
:10013000B1FF236823F0706343F040732360FFF73F
:10014000A9FF236823F4700343F44013236010BD18
:10015000000C01402DE91848FFF79CFF0C4B0D4A9D
:100160009B681168DB4323F07F4399420A4C07D90F
:10017000D4E9000110F1807B41F1000CC4E900BC1E
:10018000D4E900BC13604BEA03006146BDE818885F
:1001900010E000E00818002000180020F8B5044620
:1001A0000D46FFF7D7FF261845EB0107FFF7D2FFF3
:1001B000B94208BFB042F9D3F8BD000080B5FFF7DF
:1001C00083FF0125FFF766FF00270D4E002405FA87
:1001D00004F0C0B2FFF724FF013430463946FFF780
:1001E000DDFF072CF3D1052405FA04F0C0B2FFF7B8
:1001F00017FF30463946FFF7D1FF013CF4D1E5E760
:10020000811A060008B5FFF7D9FF0000002108B5E4
:100210000B4A0C4B93420AD100220B490B4B0C4862
:100220005B1A9B089A4205D1FFF7ECFFFEE743F803
:10023000041BEFE750F8224041F822400132F1E779
:10024000101800200018002010180020101800209E
:04025000540200084C
:040000050800020DE0
:00000001FF
