:020000040800F2
:1000000000180020050200080000000000000000A9
:1000100000000000000000000000000000000000E0
:10002000094B1A7872B90121197008498B6943F09C
:100030003C038B616FF07F41054B1A6059609A60F9
:1000400005221A60704700BF0C1800200010024003
:1000500010E000E02DE91848FFF7E2FF0C4B0D4AD5
:100060009B681168DB4323F07F4399420A4C07D910
:10007000D4E9000110F1807B41F1000CC4E900BC1F
:10008000D4E900BC13604BEA03006146BDE8188860
:1000900010E000E00818002000180020F8B5044621
:1000A0000D46FFF7D7FF261845EB0107FFF7D2FFF4
:1000B000B94208BFB042F9D3F8BD000010F0010FFB
:1000C00014BF4FF400624FF00062184B10F0020FA3
:1000D0001A6114BF4FF480624FF0806210F0040F79
:1000E0001A6114BF02224FF4003210F0080F1A6197
:1000F00014BF01224FF4803210F0100F1A6114BFA8
:1001000080224FF40002A3F5806310F0200F1A61E3
:1001100014BF40224FF4800210F0400F1A6114BF48
:1001200020224FF400121A61704700BF000C0140FA
:10013000F8B5FFF775FFFFF773FFFFF771FFFFF7E4
:100140006FFFFFF76DFFFFF76BFFFFF769FF294BAD
:1001500001255A68A3F5806322F4704242F44052AC
:10016000C3F80424D3F80424002722F4706242F474
:100170004072C3F80424D3F800241F4E22F0F0028A
:1001800042F03002C3F80024D3F8002422F00F021A
:1001900042F00302C3F800241A6822F0704242F0D1
:1001A00040521A601A6822F0706242F040721A607F
:1001B0001A6822F4700242F440121A60FFF730FF0E
:1001C000002405FA04F0C0B2FFF778FF013430468E
:1001D0003946FFF763FF072CF3D1052405FA04F035
:1001E000C0B2FFF76BFF30463946FFF757FF013CBF
:1001F000F4D1E5E7000C0140811A060008B5FFF7CD
:1002000097FF0000002108B50B4A0C4B93420AD11E
:1002100000220B490B4B0C485B1A9B089A4205D1F4
:10022000FFF7ECFFFEE743F8041BEFE750F822402E
:1002300041F822400132F1E7101800200018002098
:0C02400010180020101800204C020008CC
:0400000508000205E8
:00000001FF
