:100000000C9434000C9451000C9451000C94510049
:100010000C9451000C9451000C9451000C9451001C
:100020000C9451000C9451000C9451000C9451000C
:100030000C9451000C9451000C9451000C945100FC
:100040000C9451000C9451000C9451000C945100EC
:100050000C9451000C9451000C9451000C945100DC
:100060000C9451000C94510011241FBECFEFD8E026
:10007000DEBFCDBF11E0A0E0B1E0EEE4F6E002C0EB
:1000800005900D92A430B107D9F721E0A4E0B1E0CA
:1000900001C01D92A730B207E1F70E94EB010C945A
:1000A00025030C9400001816190624F403D000C090
:1000B0000197F9CF0895CF92DF92EF92FF920F93BD
:1000C0001F93CF93DF9379018A01D62FC72F6C013D
:1000D000A0E00E94190359F00E9453009701A80163
:1000E0006D2F7C2FC601AFEF0E940D03ECCFDF9187
:1000F000CF911F910F91FF90EF90DF90CF900895D7
:1001000021EA36E841E050E060E070E080E090E015
:100110000C945B0025E130E040E050E060E070E0EE
:1001200080E090E00C945B00CF93C82F2BE030E090
:1001300040E050E060E070E080E090E00E945B0012
:100140008C2F90E0C0FF28C05C9A9C0135952795C4
:1001500020FF24C05D9A9C013595279535952795FC
:1001600020FF1EC05E9A23E0959587952A95E1F7BA
:1001700080FF18C05F9A0E948A00299A0E948A0014
:10018000299825E630E040E050E060E070E080E053
:1001900090E0CF910C945B005C98D7CF5D98DBCF5B
:1001A0005E98E1CF5F98E7CFCF93C62F882351F0B9
:1001B000289A8C2F82958F700E9494008C2FCF915B
:1001C0000C9494002898F5CF682F81E00E94D40009
:1001D000809106018F5F809306010895CF93DF938E
:1001E000D82FC62F60E8C11160EC6D0F80E00E942F
:1001F000D400D0930601C0930501DF91CF910895FB
:1002000061E080E00E94D40029E833E140E050E062
:1002100060E070E080E090E00E945B0060E080E0E1
:100220000C94EE0090910401923029F148F4913041
:10023000B9F08A3089F5609105016F5F80E00EC0EA
:10024000933009F19430A9F7609105016053680F6C
:100250006093050110920401809106010C94EE0058
:1002600080536AE0869F802D11248093060182E0EE
:10027000809304010895609106016053860F809376
:10028000060183E0F5CF80536AE0869F802D11241C
:100290008093050184E0ECCF8D3019F46091050165
:1002A000CDCF60E08B3051F28C3011F40C94000112
:1002B000893011F481E0DCCF873041F48091060170
:1002C000803198F480E20E94E400F8CF909106011A
:1002D000903158F490910501923038F40E94E40076
:1002E000809106018F5F809306010895CF92DF927F
:1002F000EF92FF920F931F93CF93DF93EC016B016B
:10030000FB017F01EC18FD0881918111FACF8881F2
:10031000882369F00E811F810E191F09101611061E
:1003200034F48C810E94120101501109F7CFF601BB
:1003300081916F01882319F00E941201F8CF888102
:1003400081110DC00E811F810E191F091016110693
:1003500034F48C810E94120101501109F7CF1F82E1
:100360001E82CE01DF91CF911F910F91FF90EF90F0
:10037000DF90CF900895209A219A549A559A569AD0
:10038000579A299828980E94800083E00E94940040
:1003900029E93AE340E050E060E070E080E090E07E
:1003A0000E945B0083E00E9494000E94800083E032
:1003B0000E94940082E00E94940068E280E00E9423
:1003C000D4006CE080E00E94D4000E94000160E054
:1003D00080E00C94EE00CF93DF93CDB7DEB7C3552A
:1003E000D1090FB6F894DEBF0FBECDBF81E02A96CB
:1003F0008FAF2A972B961FAE2B972C961FAE2C975C
:100400002D961FAE2D9780E22E968FAF2E9781E40A
:100410002F968FAF2F9761961FAE1EAE61978AE021
:1004200090E063969FAF8EAF63970E94BB010E94DE
:10043000BB01229A80E480937C0087E880937A0055
:100440002A9A80E4882E6E0186E4C80ED11C5E01D3
:10045000A5E4AA0EB11C90E3992E2FE6722E3FE37D
:10046000632E48E7542E52E6452E6BE2362E7DE28F
:10047000272E21E533EC40E050E060E070E080E0C2
:1004800090E00E945B0080927C0080917A00806402
:1004900080937A0080917A0086FDFCCFE09078000E
:1004A000F090790060E071E0CE01875B9F4F0E9481
:1004B00076018C01F6011082222733272E193F097D
:1004C000F7FC25C0E114F10409F52996BFAEAEAEE4
:1004D0002997D5019C92F8018381882309F45CC097
:1004E00029968EAD9FAD299720853185283031051D
:1004F00009F46BC090F522303105E9F10197299696
:100500009FAF8EAF2997FC0160823CC0970129966E
:10051000DFAECEAE2997F801458160857185C901AE
:100520000E94F9028A30BCF04A50840F2996EEAD41
:10053000FFAD299731972996FFAFEEAF29978083BA
:10054000D80118966D917C91C9010E94F9029B0116
:10055000672B09F7C0CF805DE9CF2A303105E1F084
:100560002031310559F6019729969FAF8EAF299713
:10057000DC015C9207C0019729969FAF8EAF299747
:10058000DC014C922996EEADFFAD29973197299663
:10059000FFAFEEAF299790822996EEADFFAD299778
:1005A000F7FE1BC031972996FFAFEEAF2997208247
:1005B00029966EAD7FAD2997C8010E94760162E051
:1005C00071E0C8010E94760154CF019729969FAF30
:1005D0008EAF2997FC017082D5CFD80111968C91EE
:1005E000882331F331972996FFAFEEAF29973082F8
:1005F000DFCFAA1BBB1B51E107C0AA1FBB1FA61759
:10060000B70710F0A61BB70B881F991F5A95A9F7BB
:1006100080959095BC01CD0108950024A7FD00941C
:100620002A0F301D401D501D601D701D801D901D26
:1006300008950024A7FD00942A17300540055005B1
:0E06400060057005800590050895F894FFCFC1
:04064E000B00070096
:00000001FF
