:100000000C9434000C9451000C9451000C94510049
:100010000C9451000C9451000C9451000C9451001C
:100020000C9451000C9451000C9451000C9451000C
:100030000C9451000C9451000C9451000C945100FC
:100040000C9451000C9451000C9451000C945100EC
:100050000C9451000C9451000C9451000C945100DC
:100060000C9451000C94510011241FBECFEFD8E026
:10007000DEBFCDBF11E0A0E0B1E0E0ECF3E002C0F4
:1000800005900D92A238B107D9F721E0A2E8B1E0BE
:1000900001C01D92A438B207E1F70E948E010C94B2
:1000A000DE010C9400001816190624F403D000C0D9
:1000B0000197F9CF0895CF92DF92EF92FF920F93BD
:1000C0001F93CF93DF9379018A01D62FC72F6C013D
:1000D000A0E00E94D20159F00E9453009701A801AC
:1000E0006D2F7C2FC601AFEF0E94C601ECCFDF91D0
:1000F000CF911F910F91FF90EF90DF90CF900895D7
:1001000021EA36E841E050E060E070E080E090E015
:100110000C945B0025E130E040E050E060E070E0EE
:1001200080E090E00C945B00CF93C82F2BE030E090
:1001300040E050E060E070E080E090E00E945B0012
:100140008C2F90E0C0FF28C05C9A9C0135952795C4
:1001500020FF24C05D9A9C013595279535952795FC
:1001600020FF1EC05E9A23E0959587952A95E1F7BA
:1001700080FF18C05F9A0E948A00299A0E948A0014
:10018000299825E630E040E050E060E070E080E053
:1001900090E0CF910C945B005C98D7CF5D98DBCF5B
:1001A0005E98E1CF5F98E7CFCF93C62F882351F0B9
:1001B000289A8C2F82958F700E9494008C2FCF915B
:1001C0000C9494002898F5CF0F931F93CF93DF934F
:1001D0008C01EB011C161D0664F4F801608181E0BE
:1001E0000E94D400809183018F5F809383012197C7
:1001F000F1CFDF91CF911F910F910895CF92DF92B0
:10020000EF92FF920F931F93CF93DF93EC018B013B
:10021000FB016F01C01AD10A81918111FACF888147
:1002200070E060E0882321F06E817F816C197D0988
:100230007E0184E0E80EF11CC7010E94E400F80191
:1002400061918F01662349F081E00E94D400809182
:1002500083018F5F80938301F2CF888170E060E03B
:10026000811104C06E817F816C197D09C7010E94D4
:10027000E4001F821E82CE01DF91CF911F910F916A
:10028000FF90EF90DF90CF900895209A219A549A92
:10029000559A569A579A299828980E94800083E088
:1002A0000E94940029E93AE340E050E060E070E009
:1002B00080E090E00E945B0083E00E9494000E9436
:1002C000800083E00E94940082E00E94940068E233
:1002D00080E00E94D4006CE080E00E94D40061E0E5
:1002E00080E00E94D40029E833E140E050E060E083
:1002F00070E080E090E00E945B0060E880E00E9497
:10030000D400109283011092820160E880E00E9484
:10031000D40010928301109282010895CF93DF934D
:10032000CDB7DEB72B970FB6F894DEBF0FBECDBFAB
:1003300081E089831A821B821C8280E28D8381E4A2
:100340008E8318861F828AE090E09A8789870E94B0
:10035000450160E071E0CE0101960E94FE006AE274
:1003600071E00E94FE0062E571E00E94FE006CE612
:1003700071E00E94FE0090E080E02B960FB6F894AA
:10038000DEBF0FBECDBFDF91CF9108950024A7FD42
:1003900000942A0F301D401D501D601D701D801DD2
:1003A000901D08950024A7FD00942A1730054005EC
:1003B000500560057005800590050895F894FFCFFD
:1003C0000C48656C6C6F20776F726C642120202064
:1003D00020202020207C2074686973206973206F9E
:1003E0006E6C7920666F722061000A6E6963652009
:1003F000746F206D65657420796F75202020207CD6
:1004000020343020636F6C2E20646973706C6179C6
:100410002E0009303030326C696E652033203D3D4E
:100420003D3D3D3D3D3D3D3D3D3D58000A6C696EC5
:10043000652034203D3D3D3D3D3D3D3D3D3D3D3D07
:02044000580062
:00000001FF
