:100000000C9434000C9446000C9446000C9446006A
:100010000C9446000C9446000C9446000C94460048
:100020000C9446000C9446000C9446000C94460038
:100030000C9446000C9446000C9446000C94460028
:100040000C9446000C9446000C9446000C94460018
:100050000C9446000C9446000C9446000C94460008
:100060000C9446000C94460011241FBECFEFD8E03C
:10007000DEBFCDBF21E0A0E0B1E001C01D92A23003
:10008000B207E1F70E941E010C9444010C94000099
:100090001816190624F403D000C00197F9CF08956B
:1000A000CF92DF92EF92FF920F931F93CF93DF9344
:1000B00079018A01D62FC72F6C01A0E00E94380178
:1000C00059F00E9448009701A8016D2F7C2FC601AE
:1000D000AFEF0E942C01ECCFDF91CF911F910F91D8
:1000E000FF90EF90DF90CF90089522EF3DEF4FEF1C
:1000F0005FEF6FEF7FEF8FEF9FEF0C945000282F93
:1001000030E080FF18C05C9AC9019595879580FF03
:1001100014C05D9AC901959587959595879580FF3F
:100120000EC05E9A83E0359527958A95E1F720FF0A
:1001300008C05F9A08955C98E7CF5D98EBCF5E9812
:10014000F1CF5F98089520E030E040E050E060E0BB
:1001500070E080E090E00C945000CF93C82F0E9494
:10016000A3008C2F0E947F000E94A300299A0E9466
:10017000A300299821E030E040E050E060E070E02A
:1001800080E090E0CF910C945000CF93C62F88234D
:1001900051F0289A8C2F82958F700E94AD008C2F81
:1001A000CF910C94AD002898F5CF209A219A549ABB
:1001B000559A569A579A299828980E94750083E074
:1001C0000E94AD002EEF30E040E050E060E070E0D3
:1001D00080E090E00E94500083E00E94AD000E9409
:1001E000750083E00E94AD0082E00E94AD0068E2ED
:1001F00080E00E94C5006CE080E00E94C50061E0E4
:1002000080E00E94C50024E530E040E050E060E07E
:1002100070E080E090E00E94500060E880E00E9482
:10022000C500109201011092000160E880E00E9478
:10023000C500109201011092000108950E94D5009E
:1002400068E781E00E94C500809101018F5F809383
:10025000010190E080E008950024A7FD00942A0F9A
:10026000301D401D501D601D701D801D901D089586
:100270000024A7FD00942A173005400550056005AD
:0C0280007005800590050895F894FFCFEC
:00000001FF
