:100000000004001049000000000000000000000093
:1000100000000000000000000000000000000000E0
:1000200007220368934319438023194301607047F3
:100030000138FDDC7047C046182203689343083A34
:1000400013430360704700000022F8B529492A4B8A
:100050005B1A9B0801339B00101D984204D00024BA
:100060008A181460021CF7E700222449244B5B1A0B
:100070009B0801339B00101D984204D0214CA458CA
:100080008C50021CF7E7802610271F4C7602E36F86
:100090001E4D3343E36700211D48FFF7C1FF2B6866
:1000A0001B483B432B60E36F3343E367FFF7C4FF19
:1000B000E36F17483343E3670021FFF7B1FF2B6875
:1000C00013483B432B600123124D5B422B60E36FCF
:1000D00000211E43E667FFF7A3FF2C1C01235B42B0
:1000E00023600D48FFF7A4FF00230B482360FFF7B0
:1000F0009FFFF3E700000010000000100000001058
:10010000000000101C010000048004400080015029
:0C011000944004404000015060E31600E1
:0400000300000049B0
:00000001FF
