:020000040800F2
:100000000018002019010008000000000000000096
:1000100000000000000000000000000000000000E0
:10002000094B1A7872B90121197008498B6943F09C
:100030003C038B616FF07F41054B1A6059609A60F9
:1000400005221A60704700BF0C1800200010024003
:1000500010E000E02DE91848FFF7E2FF0C4B0D4AD5
:100060009B681168DB4323F07F4399420A4C07D910
:10007000D4E9000110F1807B41F1000CC4E900BC1F
:10008000D4E900BC13604BEA03006146BDE8188860
:1000900010E000E00818002000180020F8B5044621
:1000A0000D46FFF7D7FF261845EB0107FFF7D2FFF4
:1000B000B94208BFB042F9D3F8BD0000000000000B
:1000C000134C80B510A7D7E90067FFF7A9FF636855
:1000D0004FF0005523F4700343F440136360FFF7BF
:1000E0009FFF4FF00009FFF79BFFDFF82880404695
:1000F00049462561FFF7D2FF4FF400533046236194
:100100003946FFF7CBFFF2E781EE36000000000032
:1001100000100140811A0600002108B50B4A0C4B63
:1001200093420AD100220B490B4B0C485B1A9B08E7
:100130009A4205D1FFF7C4FFFEE743F8041BEFE73F
:1001400050F8224041F822400132F1E71018002017
:10015000001800201018002010180020600100086E
:0400000508000119D5
:00000001FF
