:020000040800F2
:10000000001800208501000800000000000000002A
:1000100000000000000000000000000000000000E0
:10002000224B1A78002A3FD101221A70204A136805
:1000300003F0400343F0120313601E4B1E4A19687D
:100040000A4042F480321A601A689003FCD51B4AB9
:10005000116801F4803141F480611160116821F070
:100060007F4121F07F0141F4E8111160196821F00E
:100070007C4121F0010141F080711960196889010A
:10008000FCD5116801F0040141F0020111609A6988
:100090006FF07F4142F03C029A610022084B1A60E7
:1000A00059609A6005221A60704700BF0C18002042
:1000B0000020024000100240FEFF03000410024036
:1000C00010E000E00D4B0E4A9B681168DB4323F003
:1000D0007F4399422DE910480A4C07D9D4E9000121
:1000E00010F1807B41F1000CC4E900BCD4E900BCF4
:1000F00013604BEA03006146BDE8108810E000E0A1
:100100000818002000180020F8B504460D46FFF737
:10011000D9FF261845EB0107FFF7D4FFB94208BF06
:10012000B042F9D3F8BD0000154C80B50FF240097C
:10013000D9E9008910A7D7E90067FFF771FF636865
:100140004FF0005523F4700343F440136360FFF74E
:1001500067FFFFF765FF404649462561FFF7D4FF7B
:100160004FF40053304623613946FFF7CDFFF2E7E5
:1001700081EE3600000000008162EE010000000008
:1001800000100140002108B50B4A0C4B93420AD1E4
:1001900000220B490B4B0C485B1A9B089A4205D175
:1001A000FFF7C2FFFEE743F8041BEFE750F82240D9
:1001B00041F822400132F1E7101800200018002019
:0C01C0001018002010180020CC010008CE
:040000050800018569
:00000001FF
