:1000000000040010310000000000000000000000AB
:1000100000000000000000000000000000000000E0
:10002000182203689343083A1343036070470000A3
:100030000022F8B529492A4B5B1A9B0801339B0023
:10004000101D984204D000248A181460021CF7E79F
:1000500000222449244B5B1A9B0801339B00101D8E
:10006000984204D0214CA4588C50021CF7E78026FB
:1000700007221F4C7602E36F1E4D3343E3672B6864
:100080001D4F93432B603B68FA32FF3213433B60B2
:10009000E36F281C3343E367FFF7C2FF0722E36FD8
:1000A00007213343E3672B6893432B603B68FA32A5
:1000B000FF32134301223B60104B52421A60E26F41
:1000C0001643E6672A688A432A60012252421A6070
:1000D000C04600221A60C046F7E7C0460000001084
:1000E00000000010000000100000001000010000DF
:1000F0000480044038400440008001500008015052
:0400000300000031C8
:00000001FF
