:100000000C9434000C943E000C943E000C943E0082
:100010000C943E000C943E000C943E000C943E0068
:100020000C943E000C943E000C943E000C943E0058
:100030000C943E000C943E000C943E000C943E0048
:100040000C943E000C943E000C943E000C943E0038
:100050000C943E000C943E000C943E000C943E0028
:100060000C943E000C943E0011241FBECFEFD8E04C
:10007000DEBFCDBF0E9476000C9497000C94000068
:100080001816190624F403D000C00197F9CF08957B
:10009000CF92DF92EF92FF920F931F93CF93DF9354
:1000A00081E4E82E9DE0F92E03E010E0D0E0C0E00E
:1000B000C12CD12C0E9440009701A8016D2F7C2FEC
:1000C000C601AFEF0E947F0079018A01D62FC72FAA
:1000D0006C01A0E00E948B0069F7DF91CF911F9126
:1000E0000F91FF90EF90DF90CF900895589A259A46
:1000F0002D9A0E9448002D980E944800F9CF0024B4
:10010000A7FD00942A0F301D401D501D601D701D5D
:10011000801D901D08950024A7FD00942A17300526
:100120004005500560057005800590050895F89418
:02013000FFCFFF
:00000001FF
