:100000000C9434000C943E000C943E000C943E0082
:100010000C943E000C943E000C943E000C943E0068
:100020000C943E000C943E000C943E000C943E0058
:100030000C943E000C943E000C943E000C943E0048
:100040000C943E000C943E000C943E000C943E0038
:100050000C943E000C943E000C943E000C943E0028
:100060000C943E000C943E0011241FBECFEFD8E04C
:10007000DEBFCDBF0E9499000C94A7000C94000035
:10008000CF93DF93CDB7DEB728970FB6F894DEBFD6
:100090000FBECDBF19821A821B821C821D821E8256
:1000A0001F82188629813A814B815C816D817E8116
:1000B0008F8198852F34334C4105510561057105B9
:1000C0008105910509F0A4F429813A814B815C8175
:1000D0006D817E818F819885A1E00E949B0029839C
:1000E0003A834B835C836D837E838F839887DACFDB
:1000F00028960FB6F894DEBF0FBECDBFDF91CF912B
:100100000895259A2D9A28E833E140E050E060E018
:1001100070E080E090E00E9440002D9828E833E1F4
:1001200040E050E060E070E080E090E00E9440003D
:10013000E9CF0E9481000024A7FD00942A0F301D02
:10014000401D501D601D701D801D901D0895F89468
:02015000FFCFDF
:00000001FF
