:100000000C9434000C9451000C9451000C94510049
:100010000C9451000C9451000C9451000C9451001C
:100020000C9451000C9451000C9451000C9451000C
:100030000C9451000C9451000C9451000C945100FC
:100040000C9451000C9451000C9451000C945100EC
:100050000C9451000C9451000C9451000C945100DC
:100060000C9451000C94510011241FBECFEFD8E026
:10007000DEBFCDBF11E0A0E0B1E0E2E6F6E002C0F5
:1000800005900D92A230B107D9F721E0A2E0B1E0CE
:1000900001C01D92A530B207E1F70E94E8010C945F
:1000A0002F030C9400001816190624F403D000C086
:1000B0000197F9CF0895CF92DF92EF92FF920F93BD
:1000C0001F93CF93DF9379018A01D62FC72F6C013D
:1000D000A0E00E94230359F00E9453009701A80159
:1000E0006D2F7C2FC601AFEF0E941703ECCFDF917D
:1000F000CF911F910F91FF90EF90DF90CF900895D7
:1001000021EA36E841E050E060E070E080E090E015
:100110000C945B0025E130E040E050E060E070E0EE
:1001200080E090E00C945B00CF93C82F2BE030E090
:1001300040E050E060E070E080E090E00E945B0012
:100140008C2F90E0C0FF28C05C9A9C0135952795C4
:1001500020FF24C05D9A9C013595279535952795FC
:1001600020FF1EC05E9A23E0959587952A95E1F7BA
:1001700080FF18C05F9A0E948A00299A0E948A0014
:10018000299825E630E040E050E060E070E080E053
:1001900090E0CF910C945B005C98D7CF5D98DBCF5B
:1001A0005E98E1CF5F98E7CFCF93C62F882351F0B9
:1001B000289A8C2F82958F700E9494008C2FCF915B
:1001C0000C9494002898F5CF682F81E00E94D40009
:1001D000809104018F5F809304010895CF93DF9392
:1001E000D82FC62F60E8C11160EC6D0F80E00E942F
:1001F000D400D0930401C0930301DF91CF910895FF
:1002000061E080E00E94D40029E833E140E050E062
:1002100060E070E080E090E00E945B0060E080E0E1
:100220000C94EE0090910201923029F148F4913043
:10023000B9F08A3089F5609103016F5F80E00EC0EC
:10024000933009F19430A9F7609103016053680F6E
:100250006093030110920201809104010C94EE005E
:1002600080536AE0869F802D11248093040182E0F0
:10027000809302010895609104016053860F80937A
:10028000040183E0F5CF80536AE0869F802D11241E
:100290008093030184E0ECCF8D3019F46091030169
:1002A000CDCF60E08B3051F28C3011F40C94000112
:1002B000893011F481E0DCCF873041F48091040172
:1002C000803198F480E20E94E400F8CF909104011C
:1002D000903158F490910301923038F40E94E40078
:1002E000809104018F5F809304010895CF92DF9283
:1002F000EF92FF920F931F93CF93DF93EC017B015B
:100300006A018881882369F00E811F81061B170B03
:100310001016110634F48C810E941201015011094B
:10032000F7CFF60100811181F80181918F018823B7
:1003300019F00E941201F8CF888181110DC00E8141
:100340001F810E191F091016110634F48C810E94AA
:10035000120101501109F7CF1F821E82CE01DF91D9
:10036000CF911F910F91FF90EF90DF90CF90089564
:10037000209A219A549A559A569A579A29982898C9
:100380000E94800083E00E94940029E93AE340E063
:1003900050E060E070E080E090E00E945B0083E06D
:1003A0000E9494000E94800083E00E94940082E0FA
:1003B0000E94940068E280E00E94D4006CE080E03B
:1003C0000E94D4000E94000160E080E00C94EE00E6
:1003D000CF93DF93CDB7DEB7C755D1090FB6F894E9
:1003E000DEBF0FBECDBF81E02A968FAF2A972B9636
:1003F0001FAE2B972C961FAE2C972D961FAE2D97C8
:1004000080E22E968FAF2E9781E42F968FAF2F9795
:1004100061961FAE1EAE61978AE090E063969FAF33
:100420008EAF63970E94B8010E94B801229A80E4BF
:1004300080937C0087E880937A002A9A80E4882E53
:1004400090E0A92E91E0B92E7E0186E4E80EF11C21
:100450006E01A5E4CA0ED11C20E3922E3FE6732E56
:100460004FE3642E21E533EC40E050E060E070E0C3
:1004700080E090E00E945B0080927C0080917A0096
:10048000806480937A0080917A0086FDFCCF009191
:100490007800109179006896BFAEAEAE6897E0E044
:1004A000F1E0BF016050714081918111FACFAE013E
:1004B0004A5A5F4FCE01875B9F4F0E947601FC0135
:1004C000D7011C9222273327201B310B17FD24C094
:1004D0000115110501F52996DFAECEAE2997D6019B
:1004E0009C928381882309F461C029968EAD9FADCB
:1004F0002997208531852830310509F446C078F5E3
:1005000022303105C9F1019729969FAF8EAF299707
:10051000DC016C9241C098012996FFAEEEAE29979E
:10052000458160857185C9010E9403038A30ACF062
:100530004A50840F2996AEADBFAD299711972996E1
:10054000BFAFAEAF29978C9360857185C9010E94BA
:1005500003039B01672B21F7C4CF805DEBCF2A30CB
:10056000310521F12031310571F6019729969FAFB0
:100570008EAF299728E706C0019729969FAF8EAFC7
:10058000299722E6DC012C9307C0019729969FAF9B
:100590008EAF2997DC017C922996AEADBFAD29972D
:1005A00011972996BFAFAEAF29979C922996AEAD11
:1005B000BFAD299717FF1DC011972996BFAFAEAFEA
:1005C00029978DE28C9329968EAD9FAD29976696DB
:1005D0009FAF8EAF6697DC01BD01681B790B2D9133
:1005E0002111FACFAE014C5A5F4FCF010E94760124
:1005F00039CF8181882339F311972996BFAFAEAFE8
:1006000029978BE2DFCFAA1BBB1B51E107C0AA1FB2
:10061000BB1FA617B70710F0A61BB70B881F991FA3
:100620005A95A9F780959095BC01CD0108950024B5
:10063000A7FD00942A0F301D401D501D601D701D28
:10064000801D901D08950024A7FD00942A173005F1
:100650004005500560057005800590050895F894E3
:02066000FFCFCA
:020662000C008A
:00000001FF
