:020000040800F2
:100000000018002095020008000000000000000019
:1000100000000000000000000000000000000000E0
:10002000094B1A7872B90121197008498B6943F09C
:100030003C038B616FF07F41054B1A6059609A60F9
:1000400005221A60704700BF1418002000100240FB
:1000500010E000E02DE91848FFF7E2FF0C4B0D4AD5
:100060009B681168DB4323F07F4399420A4C07D910
:10007000D4E9000110F1807B41F1000CC4E900BC1F
:10008000D4E900BC13604BEA03006146BDE8188860
:1000900010E000E01018002008180020F8B5044611
:1000A0000D46FFF7D7FF261845EB0107FFF7D2FFF4
:1000B000B94208BFB042F9D3F8BD0000034A536803
:1000C00023F4706343EA002050607047000C014045
:1000D000034A536823F4704343EA0030506070478A
:1000E000000C014008B508200021FFF7D7FF08BD2C
:1000F00070B504460825104E0320FFF7DFFF4FF0D0
:1001000080633361FFF7EEFF23060ED50820FFF76B
:10011000DFFFFFF7E7FF0820FFF7D0FF6400FFF7DE
:10012000E1FF013DE4B2E7D170BD0320FFF7D0FF4E
:100130004FF000633361ECE7000C014010B5032081
:10014000FFF7BCFF4FF08063084C2361FFF7CAFF45
:100150000820FFF7BDFFFFF7C5FF0820FFF7AEFF40
:10016000A468FFF7BFFFC4F3C02010BD000C01401E
:10017000F8B5044608200D461746FFF7A9FF0820EA
:10018000FFF79CFFFFF7AEFF0320FFF7A1FF4FF043
:1001900000631C4E3361FFF7A5FF0320FFF78EFFBE
:1001A0004FF080636000336100F0FE00FFF7A0FFB6
:1001B0002C46631B9F4206DDFFF7C0FF14F8010BBE
:1001C000FFF796FFF5E7FFF7B9FF0320FFF776FF8C
:1001D0004FF080630B4C2361FFF784FF0320FFF790
:1001E00077FF4FF000632361FFF77CFF0820FFF7E4
:1001F00065FFFFF777FF0820FFF76AFFFFF772FF41
:10020000F8BD00BF000C01402DE9F041FFF708FFE9
:10021000FFF706FF0820FFF751FFFFF701FF082057
:10022000FFF756FF0820FFF749FF0820FFF750FFB0
:100230004FF00108FFF7F4FE0027124D124E002484
:1002400008FA04F3DB4301220E4938202B700134F5
:10025000FFF78EFF30463946FFF720FF082CEFD11D
:10026000062408FA04F3DB430122294638202B70C8
:10027000FFF77EFF30463946FFF710FF013CF0D113
:10028000DDE700BF00180020801A060008B5FFF760
:10029000BBFF0000002108B50B4A0C4B93420AD16A
:1002A00000220B490B4B0C485B1A9B089A4205D164
:1002B000FFF7ECFFFEE743F8041BEFE750F822409E
:1002C00041F822400132F1E7181800200018002000
:0C02D0001818002018180020DC0200089C
:040000050800029558
:00000001FF
