:020000040800F2
:10000000001800204D010008000000000000000062
:1000100000000000000000000000000000000000E0
:10002000164B2DE910481A7872B90121197014493C
:100030008B6943F03C038B616FF07F41114B1A6079
:1000400059609A6005221A600E4B0F4A9B6811682E
:10005000DB4323F07F4399420C4C07D9D4E90001DC
:1000600010F1807B41F1000CC4E900BCD4E900BC74
:1000700013604BEA03006146BDE810880C180020AD
:100080000010024010E000E00818002000180020D6
:10009000F8B504460D46FFF7C3FF261845EB0107E8
:1000A000FFF7BEFFB94208BFB042F9D3F8BD000068
:1000B0001F4B80B5197871B901221E481A708269E8
:1000C00042F03C0282616FF07F401B4A1160506039
:1000D000916005211160194C616821F47001616023
:1000E000616841F440116160197871B901221A7098
:1000F000104A936943F03C0393616FF07F420E4BCB
:1001000019605A60052299601A604FF40058002760
:100110004FF000550A4E30463946C4F81080FFF7BC
:10012000B7FF256130463946FFF7B2FFF3E700BF5E
:100130000C1800200010024010E000E00010014008
:10014000009F240008B5FFF7B3FF0000002108B5A9
:100150000B4A0C4B93420AD100220B490B4B0C4823
:100160005B1A9B089A4205D1FFF7ECFFFEE743F8C4
:10017000041BEFE750F8224041F822400132F1E73A
:10018000101800200018002010180020101800205F
:0401900094010008CE
:040000050800014DA1
:00000001FF
