:020000040800F2
:1000000000180020F10300080000000000000000BC
:1000100000000000000000000000000000000000E0
:10002000034A536823F4706343EA0020506070472A
:10003000000C0140034A536823F4704343EA003044
:1000400050607047000C0140234B1A78002A41D1C0
:1000500001221A70214A136803F0400343F012038F
:1000600013601F4B1F4A19680A4042F480321A601D
:100070001A689003FCD51C4A116801F4803141F4E0
:1000800080611160116821F07F4121F07F0141F40E
:10009000E8111160196821F07C4121F0010141F063
:1000A0008071196019688901FCD5116801F004019B
:1000B00041F0020111609A696FF07F4142F4804281
:1000C00042F03D029A610022084B1A6059609A6022
:1000D00005221A60704700BF0C1800200020024063
:1000E00000100240FEFF03000410024010E000E098
:1000F0002DE9F041DFF85C80044608264746144DA0
:100100000320FFF78DFF4FF0806340F233102B6127
:10011000C047230616D50820FFF78CFF4FF4006375
:100120002B610520B8470820FFF77AFF4FF4806362
:1001300040F213102B61B8476400013EE4B2DFD1F6
:10014000BDE8F0810320FFF775FF4FF00063E7E79C
:10015000000C01401118002070B50320FFF760FF6C
:100160004FF08063114D124C2B6140F23310A047C9
:100170000320FFF75FFF4FF0006305202B61A047CE
:100180000820FFF74DFF4FF4806340F213102B61FE
:10019000A0470820FFF74EFF4FF4006340F24510E0
:1001A0002B612346BDE87040184700BF000C01409A
:1001B000111800200D4B0E4A9B681168DB4323F099
:1001C0007F4399422DE910480A4C07D9D4E9000130
:1001D00010F1807B41F1000CC4E900BCD4E900BC03
:1001E00013604BEA03006146BDE8108810E000E0B0
:1001F0000818002000180020F8B504460D46FFF747
:10020000D9FF261845EB0107FFF7D4FFB94208BF15
:10021000B042F9D3F8BD000038B50320FFF700FF66
:100220004FF080630D4C0E4D236140F23310A84710
:100230000820FFF7FFFE4FF4006305202361A84765
:100240000820FFF7EDFE4FF4806340F213102361A6
:10025000A368A847C3F3C02038BD00BF000C01400D
:100260001118002070B5194D2B7873B30820FFF7D3
:10027000E1FE4FF40063164C08202361FFF7D0FE27
:100280004FF4806340F245102361124EB0470320C3
:10029000FFF7D0FE4FF0006340F213102361B04728
:1002A0000320FFF7BDFE4FF0806370202361FFF74E
:1002B0001FFFFFF7B1FF084B1878FFF719FFFFF793
:1002C000ABFFFFF749FF00232B7070BD0D18002016
:1002D000000C0140111800200E180020C1074FF03B
:1002E000010108B5154B1A784CBF42F0010222F00B
:1002F00001021A70124A11701A7881074CBF42F03D
:10030000020222F002021A701A7841074CBF42F032
:10031000040222F004021A701A7801074CBF42F05E
:10032000080222F008021A70FFF79CFFFFF79AFFFD
:10033000FFF798FFFFF796FF08BD00BF0E180020DB
:100340000D18002070B54FF480664FF400650C4C1A
:10035000FFF77AFEFFF778FE0820FFF761FE2661BF
:10036000FFF772FE0820FFF765FE08202561FFF702
:1003700057FE26610820FFF75DFE256170BD00BFB6
:10038000000C01400000000080B517A7D7E9006706
:10039000FFF7D8FF0125FFF7D5FFFFF7D3FFFFF7E2
:1003A000D1FFFFF751FE002405FA04F0C043C0B2AC
:1003B000FFF794FF0CA1D1E900010134FFF71CFF06
:1003C000042CF1D1FB20FFF789FF39463046FFF7B7
:1003D00013FFFD20FFF782FF30463946FFF70CFF81
:1003E000E1E700BFAFF3008081EE360000000000BF
:1003F000002108B50B4A0C4B93420AD100220B494D
:100400000B4B0C485B1A9B089A4205D1FFF7BCFFC7
:10041000FEE743F8041BEFE750F8224041F8224082
:100420000132F1E7101800200018002010180020F9
:08043000181800203804000830
:08043800B0F10600FCDC704786
:04000005080003F1FB
:00000001FF
