:020000040800F2
:10000000001800202103000800000000000000008C
:1000100000000000000000000000000000000000E0
:10002000034A536823F4706343EA0020506070472A
:10003000000C0140034A536823F4704343EA003044
:1000400050607047000C0140094B1A7872B90121C9
:10005000197008498B6943F03C038B616FF07F4155
:10006000054B1A6059609A6005221A60704700BFFC
:100070000C1800200010024010E000E00D4B0E4A6A
:100080009B681168DB4323F07F4399422DE91048B8
:100090000A4C07D9D4E9000110F1807B41F1000C32
:1000A000C4E900BCD4E900BC13604BEA030061461C
:1000B000BDE8108810E000E00818002000180020BB
:1000C000F8B504460D46FFF7D9FF261845EB0107A2
:1000D000FFF7D4FFB94208BFB042F9D3F8BD000022
:1000E00070B504460825134E0320FFF799FF4FF023
:1000F0008063242033610021FFF7E2FF230612D53D
:100100000820FFF797FF00210320FFF7D9FF082001
:10011000FFF786FF21200021FFF7D2FF6400013D99
:10012000E4B2E1D170BD0320FFF784FF4FF000631C
:100130003361E8E7000C014010B50320FFF770FFC2
:100140004FF080630F4C002123612420FFF7B8FF9C
:100150000320FFF76FFF4FF00063002123610320AE
:10016000FFF7AEFF0820FFF75BFF00212120FFF71C
:10017000A7FF0820FFF75EFF26200021FFF7A0FF62
:1001800010BD00BF000C014010B50320FFF748FF71
:100190004FF080630B4C002123612420FFF790FF78
:1001A0000820FFF747FF00210320FFF789FF082001
:1001B000FFF736FFA46821200021FFF781FFC4F379
:1001C000C02010BD000C014038B5174C23784BB34C
:1001D0000820FFF72FFF0820FFF722FF002126202D
:1001E000FFF76EFF0320FFF725FF4FF000630F4D71
:1001F00000212B612120FFF763FF0320FFF710FF91
:100200004FF0806370202B61FFF76AFFFFF7BCFFA0
:10021000074B1878FFF764FFFFF7B6FFFFF78CFF77
:100220000023237038BD00BF0D180020000C0140D2
:100230000E180020C1074FF0010108B5154B1A78C0
:100240004CBF42F0010222F001021A70124A1170F2
:100250001A7881074CBF42F0020222F002021A70A3
:100260001A7841074CBF42F0040222F004021A70CF
:100270001A7801074CBF42F0080222F008021A70F7
:10028000FFF7A2FFFFF7A0FFFFF79EFFFFF79CFF1E
:1002900008BD00BF0E1800200D18002008B5FFF79C
:1002A000D3FEFFF7D1FE0820FFF7BAFEFFF7CCFE22
:1002B0000820FFF7BFFE0820FFF7B2FE0820FFF777
:1002C000B9FE08BD80B5FFF7E9FF0125FFF7E6FF9E
:1002D0000027FFF7E3FFFFF7E1FFFFF7B5FE0F4E43
:1002E000002405FA04F0C043C0B2FFF7A3FF0134B5
:1002F0000A480021FFF7E4FE042CF2D1FB20FFF7AF
:1003000099FF39463046FFF7DBFEFD20FFF792FFED
:1003100030463946FFF7D4FEE2E700BF811A0600F7
:10032000002108B50B4A0C4B93420AD100220B491D
:100330000B4B0C485B1A9B089A4205D1FFF7C2FF92
:10034000FEE743F8041BEFE750F8224041F8224053
:100350000132F1E7101800200018002010180020CA
:080360001018002068030008DA
:0400000508000321CB
:00000001FF
